:020000040800F2
:10000000B80C00203D020008450200084702000825
:10001000490200084B0200084D02000800000000E1
:100020000000000000000000000000004F02000877
:1000300051020008000000005302000855020008A9
:10004000570200085702000857020008570200082C
:100050005702000857020008CD290008692A000845
:10006000570200085702000857020008570200080C
:1000700057020008570200085702000857020008FC
:1000800057020008570200085702000857020008EC
:10009000570200085702000857020008112B0008F9
:1000A00057020008570200085702000857020008CC
:1000B000CD480008C149000857020008570200084F
:1000C00057020008570200085702000857020008AC
:1000D0005702000857020008514B00085702000859
:1000E00057020008570200085702000800F002F803
:1000F00000F094F80AA090E8000C82448344AAF12E
:100100000107DA4501D100F089F8AFF2090EBAE82B
:100110000F0013F0010F18BFFB1A43F0010318473B
:10012000B47C0000D47C0000103A24BF78C878C1A9
:10013000FAD8520724BF30C830C144BF04680C60ED
:10014000704700000023002400250026103A28BF35
:1001500078C1FBD8520728BF30C148BF0B60704739
:100160006E2900F03185702900F00382662907F0BE
:100170006584652907F06284672907F05F84612937
:1001800007F05E8403681B0A28BF41F080016929DB
:1001900000F07481642900F07181752900F06E818E
:1001A0006F2901F02E80782900F0CF81E92900F035
:1001B000C987E42900F0C687F52900F0C387EF2935
:1001C00001F02B80F82900F0CE810368DB0928BFFD
:1001D00041F08001632900F04A87732900F04F87BE
:1001E000E32901F05982F32901F05E820020704773
:1001F0001FB59DE8030000F03BFC01F01DF8040072
:100200000020002106F048FE401C60600020002114
:1002100006F058FEE0601FBD10B510BD01F0E2FA17
:100220001146FFF7E5FF05F07DF901F000FB03B48F
:10023000FFF7F2FF03BC01F071FB000009488047A3
:1002400009480047FEE7FEE7FEE7FEE7FEE7FEE7B8
:10025000FEE7FEE7FEE7FEE704480549054A064BD0
:10026000704700006D480008ED000008B80200204B
:10027000B80C0020B8040020B804002070B5064671
:1002800000F0DAFB056806F10B0020F00704B44229
:100290009CBF002070BD2B466A68BAB11068A042AE
:1002A00010D304F1080188423CBF5068586007D35E
:1002B0005168101941601168091B01605860146091
:1002C000101D70BD13465268002AE7D1214628460A
:1002D00000F0BAFB0028DED170BD70B50446051FE2
:1002E00000F0AAFB0068002C14BF446870BD002C0D
:1002F00018BFAC423CBF20466468F8D301680A18B6
:10030000AA4218BF456003D12A680546114401601E
:1003100028684119A1421CBF6C6070BD61686960AA
:1003200021680844286070BD10B5044600F07CFBCD
:100330000068005DC00602D504F1200010BD204613
:1003400010BD00007CB51D4616460C00009001D083
:100350002044401E074B7B442A46694601903046A4
:1003600000F05BFE05461CB10020694600F068FE07
:1003700028467CBDF10C00000FB41CB5084B06AA42
:100380007B4469460090059800F047FE0446002033
:10039000694600F055FE20461CBC5DF814FB0000C9
:1003A000BD0C00000FB47CB50C0009AA009001D070
:1003B0002044401E084B7B4469460190089800F099
:1003C0002CFE05461CB10020694600F039FE284687
:1003D0007CBC5DF814FB0000910C000070B5044675
:1003E00085690068C10601D5302600E02026C007D7
:1003F00007D070BDD4E9012130469047206A401CE7
:1004000020626D1EF6D570BD70B504468569007812
:10041000C00707D170BDD4E9012120209047206A90
:10042000401C20626D1EF6D570BD70B50C460546A9
:10043000012A05D02878800600D5EA69002302E069
:10044000012305E05B1C934202D2E05C0028F9D155
:10045000A869E618C01AA861286A184428622846C4
:10046000FFF7BCFF04E0D5E9012114F8010B904728
:10047000B442F8D32846FFF7C7FF70BD2DE9F0411D
:100480000646002410687529314616A510D000F0E4
:1004900030FB002802DA404213A507E031688A07E2
:1004A00001D512A502E0490704D511A5012401E0F8
:1004B00000F028FB00210A2206F1240709E0B0FB26
:1004C000F2FCB0FBF2F302FB1C003030785418460B
:1004D000491C0028F3D123462A463046BDE8F041A6
:1004E00000F019BB000000002D0000002B000000F0
:1004F00020000000F0B40D460188090502D5214C0A
:100500007C4402E01F4C7C440E34002100F12406A0
:1005100008E002F00F071209E75D42EA03721B09C7
:100520007754491C52EA0307F3D1027800231207DB
:1005300004D5702D06D009B1022311342246F0BC37
:1005400000F0E9BA01231034F8E770B504460D460F
:100550002146106800F0D6FA024629462046BDE83A
:1005600070400023C6E7D21D22F00703D3E9002321
:10057000C0E70368126843F0200303600823C361E7
:100580000023B7E7F77600002DE9F05F89460446BF
:100590004FF0000ADFF874B1FB44C0F820A02046F9
:1005A000E1688847002874D0252806D0D4E90121C5
:1005B0009047206A401C2062F1E700265F462046F3
:1005C000E16888472028054607DB312D05D27819D8
:1005D00010F8200C08B10643F1E7B00701D526F06A
:1005E0000406C4F81CA00027C4F818A02A2D09D0BE
:1005F000284604F047FD38B304EB8708303DC8F8BF
:10060000185019E059F8041B204604EB8702916149
:10061000E1688847012F054618D1E069002820DAF3
:1006200026F020061DE0D8F8180000EB800005EB4E
:1006300040003038C8F818002046E1688847054671
:1006400004F020FD0028EED1012F0AD02E2D08D174
:100650002046E16888477F1C0546022F46F02006A9
:10066000C4DBA069002803DA404246F00106A0611D
:10067000F00701D026F010066C2D0BD0682D09D0A4
:100680004C2D39D06A2D35D0742D35D07A2D33D0FC
:1006900016E038E0E1682F4620468847B842054614
:1006A00009D16C2F26D04FF48060E16806432046C4
:1006B0008847054604E06C2F1AD04FF4807006433B
:1006C0000DB3A5F14100192802D8203546F4006683
:1006D0004A462946204626604E46FFF741FD80B136
:1006E00001280BD0F61D26F0070000F1080956E797
:1006F0004020E4E78020D8E70020D6E706F104098F
:100700004DE7284652E7206ABDE8F09F8776000053
:10071000401ECAB210F8011F8A4202D00029F9D146
:100720000020704710B5431E13F8014F002CFBD179
:1007300005E011F8014B002C03F8014B03D0521EC9
:10074000F7D20021197010BD30B505460B462A4678
:1007500013F8014B12F8010B08B1A042F8D01CB1FC
:10076000002802D06D1CF1E7284630BD40EA0103A5
:10077000024630B59B0710D14FF0013400E008C2AB
:1007800008C91D1B9D4315EAC41FF8D013F0FF01D3
:1007900002F8011B0DD01B0AF8E711F8013B002BF2
:1007A00002F8013B05D011F8013B002B02F8013B98
:1007B000F3D130BD10B5431C02E010F8011B71B13C
:1007C0008107FAD14FF0013202C88C1A8C4314EA27
:1007D000C211F9D0C01A0A0603D0C01E10BDC01A3B
:1007E00010BD0A0401D0801E10BD0902FCD0401EBD
:1007F00010BD40EA010370B59B072ED14FF00136C2
:10080000042A2AD308C810C99D1B9D43121F15EA4C
:10081000C61517D0D8B2E1B2401A50EA056110D11E
:1008200098B2A1B2401A50EA05410AD123F07F40A4
:1008300024F07F41401A50EA052102D1180EA0EBA6
:10084000146070BDA342DBD018BA21BA884201D926
:10085000012070BD4FF0FF3070BD0AB9002070BD9F
:1008600010F8013B11F8014B63B1A3420AD1521EAB
:1008700008D010F8013B11F8014B1BB1A34201D184
:10088000521EEDD1181B70BD421E12F8013F002B05
:10089000FBD111F8013B002B02F8013BF9D1704765
:1008A000032A40F2308010F0030C00F0158011F89C
:1008B000013BBCF1020F624498BF11F801CB00F874
:1008C000013B38BF11F8013BA2F1040298BF00F8C8
:1008D00001CB38BF00F8013B11F0030300F0258085
:1008E000083AC0F0088051F8043B083A51F804CBAC
:1008F000A0E80810F5E7121D5CBF51F8043B40F872
:10090000043BAFF30080D20724BF11F8013B11F87C
:1009100001CB48BF11F8012B24BF00F8013B00F8C0
:1009200001CB48BF00F8012B704710B5203AC0F04A
:100930000B80B1E81850203AA0E81850B1E81850E0
:10094000A0E81850BFF4F5AF5FEA027C24BFB1E81D
:100950001850A0E8185044BF18C918C0BDE810408E
:100960005FEA827C24BF51F8043B40F8043B08BF97
:100970007047D20728BF31F8023B48BF11F8012B5E
:1009800028BF20F8023B48BF00F8012B70474FF00A
:1009900000020429C0F0128010F0030C00F01B804C
:1009A000CCF1040CBCF1020F18BF00F8012BA8BF5A
:1009B00020F8022BA1EB0C0100F00DB85FEAC17C1E
:1009C00024BF00F8012B00F8012B48BF00F8012BD1
:1009D00070474FF0000200B5134694469646203902
:1009E00022BFA0E80C50A0E80C50B1F12001BFF4E8
:1009F000F7AF090728BFA0E80C5048BF0CC05DF84E
:100A000004EB890028BF40F8042B08BF704748BF9B
:100A100020F8022B11F0804F18BF00F8012B70470F
:100A2000704770477047000010B500F005FC001DCE
:100A300010BD00BF65640000004870475C020020E4
:100A4000704770477047704738B504460A46002023
:100A50006946AFF30080002808BF38BD0246009900
:100A6000204600F0F1FB012038BD012000F0B2BEAD
:100A7000F8B5AFF30080054600200C46102000BFFB
:100A80000646A819A0420DD9324669460020AFF3A8
:100A90000080070008BF00F09DFE0098A04218BF2C
:100AA0000546C419FFF7C8FF05600746F01D20F092
:100AB00007004619284600F00AF8B44208BFF8BDFE
:100AC000A21B31463868BDE8F84000F0BDBB0021EC
:100AD0000160C0E9011070471020704710B500F0A8
:100AE000AFFB006810BD10B5044600F0A9FB046020
:100AF00010BD09684A0501D540B27047C905FCD54B
:100B000000B2704709684A0501D5C0B27047C905EF
:100B1000FCD580B270472DE9F0470D4699469246C4
:100B2000044600F124080168880604D5E06921F034
:100B30001001216000E00120A84201DD471B00E018
:100B40000027A1697A1902EB0900081AA061207830
:100B5000C00602D42046FFF741FC002608E0D4E995
:100B600001211AF806009047206A401C761C20627A
:100B70004E45F4DB2078C0060AD52046FFF72EFC50
:100B800006E0D4E9012130209047206A401C206211
:100B9000381EA7F10107F4DC07E0D4E9012118F8B9
:100BA00005009047206A401C2062281EA5F101051F
:100BB000F3DC2046FFF728FC2078000602D502204F
:100BC000BDE8F0870120FBE711680268006A530561
:100BD00001D508700AE0D30501D5088006E01306A8
:100BE00003D5C217C1E9000200E008600120704788
:100BF00070472DE9FF4F0C461E464FF0FF378BB074
:100C0000D2E90001DDF860800A908A46C1F30A55F6
:100C100005B93D46002108464FF00000BAF1000F2B
:100C200000F4400005DA00EB80004FF4400101EAD7
:100C300050004FEA9059B9F1010F00DDB9460A980A
:100C400050EA4A000ED044F61050A5F2FF35454355
:100C50002F14B8F1000F1ED07542291E1EDDC9F1F8
:100C600000021CE0B8F1010F4FF0000001D030216C
:100C700003E0F24305E02154401CB042FBDB304668
:100C80000022002121540B99C1F80880C1E90020FD
:100C90000FB0BDE8F08FBD1B6D1CDEE74A4600DAE1
:100CA000694206A800F004FD06AB93E8070003AB19
:100CB00083E8070050460A9900F056FE8DE80700C9
:100CC000A0F500501F3800900398002D0ADD42F275
:100CD0001F014A460844002303A90390684601F017
:100CE000BFF809E0A0F500504A461F38002303A9C9
:100CF0000390684601F0C9F88DE807000004000C75
:100D000003D04FF0FF30410800E01046B8F1000F6B
:100D100003D00022009215461EE0751E05D400F097
:100D2000ADFA303262556D1EF9D5B3460122084343
:100D300002D000227F1C04E02078302801D100225C
:100D40007F1E002A099784D01DE0112D07DA00F0DC
:100D500095FA303262556D1C50EA0102F5D1084314
:100D600002D00098C8B10EE00021681E05E0235CA7
:100D7000625C63542254401E491C8142F7DBAB463F
:100D8000A81B401E0990002004F80B000B98099A3C
:100D9000C0F80880C0E9002B7AE711264FF0000860
:100DA00057E72DE9F04F88460446D21D22F007018F
:100DB00091B0D1E90001CDE90A0104F0D9F8024669
:100DC0000B98C00F01D02D2007E02068810701D5C6
:100DD0002B2002E0202101EAC000032A099001D063
:100DE000072A05DB03464146204600F00BFC0BE1D9
:100DF0002078800601D5E06900E00620B8F1650F93
:100E0000814606D0B8F1660F18D0B8F1670F70D1DF
:100E100031E00020B9F1110F009001DB112301E056
:100E200009F101030AAA01A90CA8FFF7E2FEDDE916
:100E30000C70002609F10105834647E001204B466E
:100E400000904FF000470AAA01A90CA8FFF7D1FEB5
:100E5000DDE90DB00C995D46002610B909F10100DD
:100E60000D18B9EB050003D4C0F1FF3609F10105F7
:100E7000A5EB09002BE0B9F1010F01DA4FF00109F0
:100E80000020B9F1110F0090484601DD112300E068
:100E900003460AAA01A90CA8FFF7ABFEDDE90C7016
:100EA0004D4600268346207800070AD4AB4500DA79
:100EB0005D4601A8012D04DD411911F8011C3029FE
:100EC00007D04F4502DA17F1040F04DA01208246F9
:100ED0000FE06D1EEEE7002F02DCED1B3E4403E049
:100EE000781CA84200DD7D1CB81B00F1010A4FF000
:100EF00000472078000703D4AA4501DB4FF0FF3AF2
:100F00000021B7F1004F0DF143088DF8431024D0B4
:100F100002202B23002F01DA7F422D230A21021EFB
:100F2000A0F1010000DC5FB197FBF1FC97FBF1F24F
:100F300001FB1C7C17460CF1300C08F801CDEEE7E4
:100F4000A8F1010003702188090501D5452100E0C1
:100F50006521A0F1010800F8011C09980FA9A1EB77
:100F60000807FF1D00B10120411901EBEA70A169DA
:100F70003844081A401EA0612078C00602D42046DA
:100F8000FFF72CFA099828B1D4E901219047206A8B
:100F9000401C20622078C00622D52046FFF71EFAAA
:100FA0001EE0002E04DBB34502DD01A8805D00E0F9
:100FB0003020D4E901219047206A401C2062761C31
:100FC000AAF101005FEA000A0AD100F035F9C06811
:100FD0000168405CD4E901219047206A401C2062EE
:100FE000281EA5F10105DCDC07E0D4E9012118F891
:100FF000010B9047206A401C2062381EA7F10107B0
:10100000F3DC2046FFF700FA032011B041E60000B0
:1010100001694A1C02610878704700B58FB0CDE9BC
:1010200001310021059105497944CDE903101146AC
:101030006846FFF7A9FA0FB000BD0000E5FFFFFF0B
:101040000A6802F8010B0A607047D1E900239A424E
:1010500002D2531C0B601070704710B5436913B176
:10106000AFF3008001E0FFF7E0F9012010BD127836
:1010700000F124010A7000224A700122EDE7116894
:101080004FF0FF32E9E700002DE9FF5F15468A4681
:101090000446DFF8AC80F8440027D8E900103E464B
:1010A000CDE9001010E03AF816106A4602A800F0E8
:1010B00071FB411C07D02178890603D5E2693918F4
:1010C00091420DD80744761C2078800602D5E0694D
:1010D000B84205DDAE42E6DB3AF816000028E2D160
:1010E000A069C01BA0612046FFF778F9D8E900107D
:1010F000CDE90010002017E03AF818106A4602A85F
:1011000000F048FBB0F1FF3F81460BD000250DF108
:10111000080B05E0D4E901211BF8050090476D1C80
:101120004D45F7D308F10100B0428046E4DB206A68
:10113000384420622046FFF767F9BDE8FF9F0000B2
:10114000266C00002DE9F0418046D21D22F00702F6
:101150000025D2E90002F52915A614D0011E72F16E
:10116000000106DA0023D0EB030063EB020211A6B4
:1011700008E0D8F800108B0701D50FA602E0490758
:1011800001D50EA601251146002408F1240704E02C
:1011900000F074F830323A55641C50EA0102F7D17D
:1011A0002B46324621464046BDE8F041FFF7B3BC2E
:1011B000000000002D0000002B00000020000000B7
:1011C00030B4002100F1240408E002F00705D20841
:1011D000303542EA4372DB086554491C52EA030584
:1011E000F3D10468002310A2250707D5A40600D474
:1011F00021B1C46901230DA2641EC46130BCFFF794
:101200008ABC10B5044621461068FFF77BFC0246F5
:101210002046BDE810400023D2E7D21D22F007018E
:10122000D1E90023CCE700000000000030000000FE
:1012300000487047540200200048704774020020A4
:101240000048704754020020034640688C4600283E
:1012500018BF88423CBF03464068F8D3186818445A
:10126000884207D00CF1030020F00700001D411A4E
:10127000521A0146081D0A60FFF72FB830B5B0F1C9
:101280000A024FEA900E71F100034EEA817EB0EB44
:101290000E0061EB91014FEA101E4EEA017E10EB49
:1012A0000E0041EB11114FEA102E4EEA016E10EBC9
:1012B0000E0041EB11214FEA104E4EEA014E10EBA9
:1012C0000E0041EB1141401841F100014FEAD000FE
:1012D00040EA41704FEAD10110EB80054FEA8104EA
:1012E00044EA907444EB01046D1944EB0404521B6E
:1012F000A3414FF0000348BF0A3200D530BD401C67
:1013000041F1000130BD00002DE9F04F04460D46CB
:10131000D21D22F0070089B0D0E90097484639462F
:1013200003F026FE0246F80F01D02D2307E02068C7
:10133000810701D52B2302E0202101EAC0038DF8AB
:1013400020300BB1012000E00020032A824601D0AA
:10135000072A04DB2946204600F054F93FE12078B3
:10136000800601D40D2500E0E569C7F30A560D2D6E
:1013700049DA00214FEA175B08464FF00000002FC2
:1013800000F4400007DA00EB80004FF4400100EB6E
:10139000D07001EA60008115012901DD4FF0FF31B5
:1013A00000224FEA850CBCF1180F06D31346ACF1AE
:1013B00018004FF08052C24003E04FF4801323FA2C
:1013C0000CF30CF10C0CBCF1200F04D3ACF1200C8D
:1013D00009FA0CF001E007FA0CF000294FF0004880
:1013E00001DD18B90FE00ED140450CD319EB02090D
:1013F0005F4121B9404502D19F4329EA0209BBEB75
:10140000175F00D0761C2088000502D57B48784401
:1014100002E07A487844193808AA302302F80A30E2
:10142000037C0AF10101002E0AF1020A53546A46B4
:1014300002DC4FF0300101E04FF031014FF00108C4
:101440008DF8001002D0A6F2FF3603E059EA4701FA
:1014500000D06B4E002D02DC2178090704D54FF037
:1014600002082E218DF80110C44600210BE0C7F3BD
:1014700003433F01C35C491C6D1E02F80830052977
:1014800008F1010801DA002DF1DC00210CE000EB8D
:101490001973491C1B786D1E082902F808304FEAA1
:1014A000091908F1010801DA002DF0DC21688B062A
:1014B00002D516E0A8F10108E04505DD02EB0803BE
:1014C00013F8013C302BF5D0B8F1000F09DD02EB29
:1014D000080313F8013C2E2B03D1090701D4A8F10E
:1014E0000108002D05DD3E2102F808106D1E08F1EF
:1014F0000108407C002E02F8080008F1010804DA17
:101500002D20764202F8080002E02B2002F80800A5
:101510000A214FF47A70864208F101080BDB96FB32
:10152000F0F3303302F8083096FBF0F308F10108CD
:1015300000FB136601E0642E0CDB642096FBF0F3E5
:10154000303302F8083096FBF0F308F1010800FB95
:10155000136601E00A2E06DB96FBF1F0303002F84C
:10156000080008F1010896FBF1F001FB1060303033
:1015700002F80800A16908F1010808EB050202EB76
:101580000A00081AA0612078C00602D42046FEF79F
:1015900025FF216A08AE01EB0A00206204E0D4E9CD
:1015A000012116F8010B9047BAF1010AF7D2207811
:1015B000C00602D52046FEF711FF6E4609E016F878
:1015C000010B3E280FD0D4E901219047206A401C2E
:1015D0002062B8F10108F2D22046FEF715FF09B0EB
:1015E0000320BDE8F08F206A2844206203E0D4E99C
:1015F0000121302090476D1EEBD3F8E7D168000041
:1016000002FCFFFF2DE9F0411F4604460326016856
:10161000072A01F4006004DB08B116A505E016A551
:1016200003E008B115A500E015A521F01000206029
:10163000A069C01EA0610FB1401EA0612046FEF748
:10164000CDFE4FB1D4E9012138469047206A401CB5
:101650002062C01C206206E0206AFAE7D4E901217A
:1016600015F8010B9047761EF8D22046FEF7CCFE07
:10167000BDE8F0814E414E006E616E00494E46005D
:10168000696E660010B5436913B1AFF3008001E0E5
:10169000FFF7FAFC012010BD128800F124018284BA
:1016A0000022C2840122EDE711684FF0FF32E9E722
:1016B0002DE9F047814616468AB0354878440DC872
:1016C0008DE80D0032487844801C03AC0DC884E8D6
:1016D0000D0041F69B300844372190FBF1F290FB5E
:1016E000F1F5A5F1800501FB12041B3C02D5644213
:1016F000012000E00020DFF898A080460027FA448F
:10170000AAF1BE0A0EE0E0070AD03246684607EBAF
:10171000470101230AEB810100F0B7FB8DE80700C8
:1017200064107F1C002CEED1194F7F44AE3F19E0AE
:10173000E80715D007EB04100DF1180A90E80E0029
:101740008AE80E00C068F04201D19819089032462C
:10175000012306A903A800F098FB03AB83E8070068
:101760006D10641C002DE3D14FF001033246694631
:10177000B8F1000F03A802D000F072FB01E000F006
:1017800084FBC9E90001C9F808200AB0BDE8F08768
:10179000B466000070B516460C460546FFF744F9DE
:1017A000036893F80101012806D0FF2C0FD8185DBB
:1017B00068B101202C7070BDD3F807013246214674
:1017C00003F2071303442846BDE8704018474FF062
:1017D000FF3070BD10B500F039F8BDE8104000F0E2
:1017E0002FB870477546FFF723FDAE4605006946E2
:1017F000534620F00700854618B020B5FEF72CFDB3
:10180000BDE820404FF000064FF000074FF0000801
:101810004FF0000B21F00701AC46ACE8C009ACE882
:10182000C009ACE8C009ACE8C0098D46704710B5E6
:101830000446AFF300802046BDE81040FEF7F7BC39
:10184000002801D000F06AB87047000010B50128E8
:1018500005D0002103A000F067F8012010BD09A108
:10186000F8E7000053494752544D454D3A204F7513
:1018700074206F662068656170206D656D6F727988
:10188000000000003A2048656170206D656D6F7240
:101890007920636F72727570746564004FF0013C5B
:1018A00050F8042B51F8043B9A4221D1A2EB0C03CF
:1018B000934313EACC1317D150F8042B51F8043B8F
:1018C0009A4215D1A2EB0C03934313EACC130BD12C
:1018D00050F8042B51F8043B9A4209D1A2EB0C03B7
:1018E000934313EACC13DBD04FF00000704700BFE6
:1018F000D01A01BAB1FA81F101F0180122FA01F00F
:10190000CB40C1F12001DBB2C0B2C01A2CFA01F306
:10191000D11A914311EAC311E6D170470149182049
:10192000ABBEFEE72600020070B505460C460A2055
:1019300000E06D1C00F011F835B128780028F8D1CE
:1019400002E0641C00F009F814B120780028F8D1F6
:10195000BDE870400A20AFF3008008B569468DF8F5
:1019600000000320ABBE08BD5FEA400C08BF91F049
:10197000000F4FEA8C234FEAC12243EA51514FEA4C
:101980001C5018BF00F5F0404FEA300018BF41F07E
:1019900000415FEA6C5C00F02980BCF1FF3F08BFAA
:1019A00040F080407047130C06BF12044FF0100C3B
:1019B0004FF0000C130E04BF12020CF1080C130FB1
:1019C00004BF12010CF1040C930F04BF92000CF140
:1019D000020CD30F04BF52000CF1010C11464FF062
:1019E0000002A0F11F00A0EB0C00704711F0004FA7
:1019F00008BF704731F000413FF4D5AF0B0C06BF74
:101A000009044FF0100C4FF0000C0B0E04BF09023C
:101A10000CF1080C0B0F04BF09010CF1040C8B0F27
:101A200004BF89000CF1020CCB0F04BF49000CF17C
:101A3000010CCCF12003A0EB0C0022FA03F302FA14
:101A40000CF241EA030100F10100704720F07F4CE5
:101A500080EA030023F07F47ACEB070303F57C53D8
:101A600000F0004003F1FF032DE980494FEA154BD8
:101A700009B44FEA144325EA0B4E24EA03480FF257
:101A8000042606EB132749083E785FEA320203FB7F
:101A90000667C7F5000707FB06F64FEA54374FEA1B
:101AA000D64606F1020607FB066CCCF1005C4FEA55
:101AB0001C472CEA074C07FB06F40CFB06F504EB6D
:101AC00015464FEA961634BF00204FF000404FEA0B
:101AD000D13706FB07FC4FEA1C4C0CFB0BF7D21B63
:101AE00003FB0CF761EB07010CFB0EF7B0EB0740B3
:101AF00072EB17420CFB08F734BFA2EB0742B2EBC4
:101B0000074261EB17414FEA0C444FEA910706FB8D
:101B100007FC4FEA1C4C0CFB0BF7B0EBC74072EB19
:101B2000573203FB0CF734BFA2EBC742B2EBC742FC
:101B300061EB57310CFB0EF7B0EBC70072EB57723D
:101B40000CFB08F734BFA2EBC702B2EBC70261EB94
:101B50005771039F4FEA816141EA921104EBCC0473
:101B60004FEAD1374FEA826206FB07FC42EA901245
:101B70004FEA80604FEA1C4C0CFB0BF7D21B03FBB7
:101B80000CF761EB07010CFB0EF7B0EB074072EBB3
:101B900017420CFB08F734BFA2EB0742B2EB074237
:101BA00061EB17414FEA8C554FEA910704EB9C24F7
:101BB00006FB07FC4FEA1C4C0CFB0BF7B0EBC740D5
:101BC00072EB573203FB0CF734BFA2EBC742B2EB08
:101BD000C74261EB57310CFB0EF7B0EBC70072EB5D
:101BE00057720CFB08F734BFA2EBC702B2EBC70277
:101BF00061EB577115EB4C254FEA816141EA921177
:101C00004FEA82624FEAD13742EA901206FB07FCA4
:101C100044F100044FEA80604FEA1C4C0CFB0BF7C8
:101C2000D21B03FB0CF761EB07010CFB0EF7B0EBCB
:101C3000074072EB17420CFB08F734BFA2EB0742D8
:101C4000B2EB074261EB174115EB1C154FEA8131EE
:101C500041EA92414FEA823242EA90424FEA8030B2
:101C60004FEA0C7644F1000448EA03434EEA0B487D
:101C70004FF0000EB2EB080C71EB030724BF624675
:101C800039464EEB0E0E4FF0000B00185241494101
:101C90004BEB0B0BB2EB080C71EB03077BF1000B6A
:101CA00024BF624639464EEB0E0E4FF0000B001873
:101CB000524149414BEB0B0BB2EB080C71EB0307A4
:101CC0007BF1000B24BF624639464EEB0E0E51EA03
:101CD000020718BF46F0010616EB0E7655F100021A
:101CE00054F1000103D5BDE88901BDE80088BDE8D5
:101CF0008901BDE80048B619524141EB0101A3F149
:101D00000103704780807F7E7D7C7B7A797877764F
:101D100076757473727171706F6E6E6D6C6C6B6AC8
:101D20006A69686867666665646463636261616066
:101D3000605F5F5E5E5D5D5C5C5B5B5A5A595958E3
:101D4000585757565655555554545353525252514D
:101D5000515050504F4F4F4E4E4D4D4D4C4C4C4BA3
:101D60004B4B4A4A4A4949494848484747474746EA
:101D70004646454545444444444343434342424226
:101D800042414141002B9C4630D477002BD01CB5FA
:101D90004FEA370703B44FF010004FF01001BAF1CB
:101DA000000F06D0BCF1000FDCBF40F0080040F08F
:101DB00008014FF000000FBCBDE810400BF1010B13
:101DC000BBF1010F08BF5FEA170722BF12F1010242
:101DD00011F101014FF0004143F1000300F0004018
:101DE00043EA00007047F9D35708D0E746EA0646B1
:101DF00013F1400F4FEA16461FDD13F1200FDFBF2E
:101E000016430A46002120335B42BED0C3F12007AF
:101E100046EA064602FA07F74FEA164646EA07067A
:101E2000C3F1200722FA03F201FA07F721FA03F1BE
:101E30004FF0000342EA0702A7E746EA020646EA35
:101E400006464FEA164646EA0106BCBF46EA064683
:101E5000360C4FF000034FF000024FF0000194E702
:101E60002DE9804C9A46934670B491E8380007C833
:101E700031EA400C48BF34EA430C03D5FFF7E6FDD6
:101E8000FFF780FFF0BCBDE8008C2DE9804C9A463E
:101E9000934670B491E8380007C810F0804F08BF2F
:101EA00013F0804F03D100F005F8FFF76BFFF0BC93
:101EB000BDE8008C20F07F4780EA030023F07F4CD0
:101EC00007EB0C03A3F57C5300F00040A3F1FE03E5
:101ED00092F0000F00F0B38095F0000F00F07780D3
:101EE0002DE901494FEA11404FEA144621EA004822
:101EF00000FB06FC24EA064708FB06F607FB08F889
:101F000000FB07F718EB06484CEB164C4FEA124B58
:101F100018EB07484FEA15464CEB174022EA0B4EE8
:101F20000BFB06FC25EA06470EFB06F607FB0EFE3A
:101F30000BFB07F71EEB064E4CEB164C4FF0000662
:101F40001EEB074E4CEB174B18EB0B0840F1000053
:101F500018EB0E0B58EB000840F100008F1A4FF001
:101F600000013CBFC943661B14BFB5EB040C002144
:101F70003CBFC943F61B4FEA17444EEA8E0E27EAD0
:101F800004454FEA1C4704FB07622CEA074C05FB9B
:101F900007F70CFB05F604FB0CFC16EB074642EBBF
:101FA000174216EB0C4642EB1C421BEB060658EBA5
:101FB0000202414146EA9E0601D5BDE80189B619F3
:101FC000524141EB0101A3F10103BDE801894FEA50
:101FD00014454FEA114724EA054621EA074C05FB60
:101FE00007F406FB07F70CFB06F105FB0CFC11EBF5
:101FF000074144EB17444FEA124711EB0C4144EB05
:102000001C4422EA074C05FB07F206FB07F70CFB12
:1020100006F605FB0CFC16EB074642EB174216EBE7
:102020000C4642EB1C456A1854F1000148BF70474A
:10203000B619524141EB0101A3F10103704795F03C
:10204000000F37D04FEA11424FEA144721EA024607
:1020500024EA074C02FB07F106FB07F70CFB06F42A
:1020600002FB0CFC14EB074441EB17414FEA154708
:1020700014EB0C4441EB1C4125EA074C02FB07F52D
:1020800006FB07F70CFB06F602FB0CFC16EB0746FB
:1020900045EB174516EB0C4645EB1C42121951F166
:1020A000000148BF7047B619524141EB0101A3F14D
:1020B000010370474FEA14454FEA114724EA0546E9
:1020C00021EA074C05FB07F106FB07F70CFB06F2BC
:1020D0004FF0000605FB0CFC12EB074241EB1741E9
:1020E00012EB0C4251EB1C4148BF7047921841EB78
:1020F0000101A3F1010370472DE9F0470746894626
:102100009046DDF820C00021002200240026002592
:10211000002004460246014645E0002601E0491C35
:10212000761C614502D2585C2028F8D0614500D168
:102130003BE0ACEB0100022807D3585C0D2804D12A
:10214000481C185C0A2800D12CE0585C0A2800D1F1
:1021500028E01EB16FF02B00BDE8F087585C3D28E9
:1021600006D1601C0446022802D96FF02B00F3E769
:10217000585C7F2806DC585CDFF8E4A01AF8000001
:102180007F2802D16FF02B00E6E7585CDFF8D0A083
:102190001AF80000402803DA14B16FF02B00DBE7D7
:1021A000521C00BF491C6145B7D300BF1AB90020BB
:1021B000C8F80000D0E7D00800EB40004FEA400A22
:1021C00002F0070000EB40004000C01D0AEBD00207
:1021D000121B0FB1914504D2C8F800206FF02900FE
:1021E000BAE703240020064602463D4631E018784F
:1021F0000D2805D018780A2802D01878202800D198
:1022000025E01878DFF858A01AF80000402801D11E
:10221000012000E00020241A1878DFF844A01AF802
:10222000000066F39F100646501C024604280DD19C
:10223000002214B1300C05F8010B012C02D9300A30
:1022400005F8010B022C01D905F8016B00BF491EEE
:102250005B1C0029CBD1E81BC8F8000000207BE7FD
:10226000747B00082DE9F04F07468946099C00253C
:102270000026AC46A846AA4600211CB900201060E2
:10228000BDE8F08F0320B4FBF0F04FF0030BB4FB7C
:10229000FBFE0BFB1E4BBBF1000F02D04FF0010BFE
:1022A00001E04FF0000B00EB0B06B6F1804F05D3B9
:1022B0004FF0FF3010606FF02900E1E7B600701CAE
:1022C000814500D327B9701C10606FF02900D7E753
:1022D0000320B4FBF0F000EB40060025394629E06E
:1022E00013F801CB13F8018B13F801AB2D484FEA1B
:1022F0009C0B10F80B0001F8010B4FEA0C1000EBDF
:10230000281000F03F00DFF89CB01BF8000001F837
:10231000010B4FEA880000EBAA1000F03F001BF809
:10232000000001F8010B0AF03F001BF8000001F863
:10233000010BED1CB542D3D3A5422DD213F801CB2E
:10234000681CA04202D213F8010B00E00020804676
:102350001448CCF3850B10F80B0001F8010B4FEA81
:102360000C1000EB281000F03F00DFF838B01BF82D
:10237000000001F8010B681CA04207D23F2000EAD0
:1023800088001BF8000001F8010B02E03D2001F875
:10239000010B3D2001F8010BC81B106000200870E4
:1023A00000BF6DE7347B000810B586B004460121FC
:1023B000082002F00FF90121880402F0FBF8182030
:1023C0008DF817004FF48060ADF8140003208DF8ED
:1023D000160005A91E4800F06BFC04208DF81700BC
:1023E0004002ADF8140003208DF8160005A9184826
:1023F00000F05EFC01940020ADF810000C20ADF858
:102400000E000020ADF80C00ADF80A00ADF8080091
:1024100001A9104802F034FC01210E4802F0C7FB6C
:10242000012240F225510B4802F004FC27208DF8D0
:10243000000001208DF8030000208DF8010002202B
:102440008DF80200684601F0B3FA06B010BD000036
:10245000000C01400048004070B50024002504E055
:10246000601CC4B2012002F0E9FE20210E4800F0F9
:10247000AAFC08B1C82CF3DBC82C01DB012510E055
:10248000002404E0601CC4B2012002F0D7FE202129
:10249000054800F098FC08B9F02CF3DBF02C00DBC9
:1024A0000125284670BD0000000801402DE9F05FBD
:1024B0004FF0010B4FF0000AD146002400F0ACF8B9
:1024C00000F090F8FFF7C8FFCC2000F0B1F8BE2074
:1024D00000F0AEF800F074F8824600F071F8814622
:1024E000B9F1070F02DD00BF00BFA3464C46200232
:1024F00004B204EB0A0004B2BBF1000F0ED1601C61
:1025000004F039FF074600220C4B04F087FF054614
:1025100004F002FF04B2604204B20BE0204604F073
:102520002AFF05460022054B04F078FF074604F019
:10253000F3FE04B22046BDE8F09F00000000E43F37
:1025400008B500BF0121042002F044F800BF20209C
:10255000ADF8000014208DF8030003208DF8020070
:102560006946044800F0A4FB00F03CF8FFF774FF54
:1025700008BD00000008014010B5002400BF002283
:1025800020210E4800F028FC00BF022002F056FE79
:1025900000BF01222021094800F01EFC00BF0C20D2
:1025A00002F04CFE2021054800F00DFC00B1012492
:1025B000322002F043FE204610BD0000000801401A
:1025C00070B50026002408E0FFF7D6FF054605FA9F
:1025D00004F03043C6B2601CC4B2082CF4DB3046B1
:1025E00070BD000010B500BF00222021094800F096
:1025F000F3FB00BF40F2EE2002F020FE00BF0122FC
:102600002021044800F0E8FB00BF0F2002F016FE76
:1026100010BD00000008014010B5FFF7E3FFFFF711
:102620001BFFCC2000F004F8442000F001F810BD9E
:1026300070B5044601252EE004F00100A0B100BFF2
:1026400000222021154800F0C7FB00BF022002F045
:10265000F5FD00BF01222021104800F0BDFB00BFA6
:102660003C2002F0EBFD13E000BF002220210B48CC
:1026700000F0B2FB00BF3C2002F0E0FD00BF0122F1
:102680002021064800F0A8FB00BF022002F0D6FD82
:102690006410681CC5B2082DCEDD70BD0008014075
:1026A00010B54FF400710348FEF771F9002002499C
:1026B000088010BD540000201400002070B50546AD
:1026C000002400BF00F068F980B90DA10E48FEF7A4
:1026D0003BF8044654B13A212046FEF719F8044667
:1026E00014B1641C204670BD0020FCE7052002F0F8
:1026F00099FD281EA5F101018DB2E3D100BFF2E7DB
:102700004950442C000000005400002010B5FFF791
:10271000C7FF012002F062FB22A20021084600F060
:1027200074FC24A1264802F01BFB03E04FF4FA706E
:1027300002F078FD23A120A000F08AF80028F5D14E
:1027400021A11F4802F00CFB03E04FF4FA7002F0E5
:1027500069FD1CA11FA000F07BF80028F5D121A184
:10276000174802F0FDFA03E04FF4FA7002F05AFD48
:1027700014A120A000F06CF80028F5D121A1104888
:1027800002F0EEFA03E04FF4FA7002F04BFD20A1E4
:1027900021A000F05DF80028F5D127A1084802F03B
:1027A000DFFA10BD4553503832363620496E697411
:1027B0002E2E2E0020312E2041540D0A0000000044
:1027C000004800404F4B0000322E2043574D4F44ED
:1027D000450D0A0041542B43574D4F44453D310DA3
:1027E0000A000000332E2041542B435744484350E5
:1027F0000D0A000041542B4357444843503D312CAF
:10280000310D0A00342E2043574A41500D0A000072
:10281000474F54204950000041542B43574A4150E0
:102820003D224F4E45504C5553222C226D62677607
:1028300034393737220D0A00352E204553503832AF
:10284000363620496E6974204F4B0D0A0000000097
:102850002DE9F04104460D46C8262046FDF7AAFFA3
:1028600087B23A4621460D4802F09EFA0FE000F08A
:1028700093F848B929460A48FDF766FF20B1FFF7EB
:102880000FFF0020BDE8F0810A2002F0CBFC301ED3
:10289000A6F10101CEB2EAD10120F3E700440040E5
:1028A0005400002030B589B004460D46FFF7F8FE0D
:1028B0002A4608A101A8FDF75FFD0AA101A8FFF7BC
:1028C000C7FF20B92A462146074802F06DFA09B031
:1028D00030BD000041542B43495053454E443D25E3
:1028E000640D0A003E0000000044004010B586B0B0
:1028F00004460121042001F06DFE0121480401F08D
:1029000059FE18208DF817000420ADF8140003209C
:102910008DF8160005A91E4800F0CAF904208DF8AC
:1029200017000820ADF8140003208DF8160005A943
:10293000174800F0BDF901940020ADF810000C20FC
:10294000ADF80E000020ADF80C00ADF80A00ADF8AF
:10295000080001A90F4802F093F901210D4802F087
:1029600026F9012240F225510A4802F063F9262097
:102970008DF8000001208DF8030000208DF8010083
:102980008DF80200684601F013F806B010BD000093
:1029900000080140004400400A48008808B90120AE
:1029A00070470848008808490988884203D10020F8
:1029B00004490880F4E7034800880349088001209F
:1029C000EEE70000140000201600002010B50120E2
:1029D00000F0F0F800283AD01F480078A0B9012193
:1029E0001E4800F0F0F978B900214FF0804002F065
:1029F00038F80120184908700020194908600121A1
:102A0000880702F02EF822E013480078F8B101217F
:102A1000124800F0D8F9D0B100200F490870002109
:102A20004FF0804002F01DF80D480068052807D3DC
:102A30000B480068642803D201200A49087006E0A8
:102A400007480068642802D3012006494870012025
:102A500000F0AAF810BD000032000020000C014078
:102A6000280000202C00002010B5022000F0A2F861
:102A7000002840D00221224800F0A5F990B9214851
:102A8000007878B900214FF0804001F0EAFF012082
:102A90001C49087000201C4908600121880701F0CA
:102AA000E0FF28E01748007828B30221144800F01E
:102AB0008AF900B300201349087000214FF08040CC
:102AC00001F0CFFF1048006805280AD30E480068BF
:102AD000642806D201200D49087000200A490860C8
:102AE00009E009480068642805D3012007494870B7
:102AF000002005490860022000F056F810BD0000D3
:102B0000000C014033000020280000202E0000208F
:102B100010B54FF4007000F04DF800283BD01E486F
:102B2000007880B94FF400711C4800F04CF950B99E
:102B300001201949087000201949086001218807FF
:102B400001F08FFF23E01448007800B34FF40071C8
:102B5000124800F038F9D0B100200F490870002168
:102B60004FF0804001F07DFF0D480068052807D335
:102B70000B480068642803D201200A49087006E067
:102B800007480068642802D30120064948704FF4C2
:102B9000007000F009F810BD34000020000C014066
:102BA0002800002030000020014908607047000024
:102BB00014040140014600200022074B1B6803EA71
:102BC0000102054B14331B680B4013B10AB10120FD
:102BD00000E000207047000000040140002123496C
:102BE0008279002A3AD00A46126803689A430B4653
:102BF0001A600A1D126803689A430B1D1A60027955
:102C000011440A6803681A430A60184A08321268B5
:102C100003689A43154B08331A601A1D126803683B
:102C20009A43124B0C331A604279102A0ED11A1FA4
:102C3000126803681A430D4B08331A601A1D126894
:102C400003681A43094B0C331A600DE007494279B7
:102C500011440A6803681A430A6005E002791144C6
:102C60000A6803689A430A60704700000004014044
:102C700030B500228B071C0F0F2303FA04F20B4B15
:102C80008C1053F824309343084C8D1044F82530B1
:102C900023468C1053F824308C07240F00FA04F4D8
:102CA0002343024C8D1044F8253030BD080001400C
:102CB0002DE9F041024600250026002000230024D3
:102CC000002791F803C00CF00F0591F803C00CF039
:102CD000100CBCF1000F03D091F802C04CEA0505BE
:102CE00091F800C0BCF1000F31D0146800202BE037
:102CF0004FF0010C0CFA00F3B1F800C00CEA030627
:102D00009E4220D183004FF00F0C0CFA03F7BC4316
:102D100005FA03FC4CEA040491F803C0BCF1280F47
:102D200006D14FF0010C0CFA00FCC2F814C00AE006
:102D300091F803C0BCF1480F05D14FF0010C0CFA1B
:102D400000FCC2F810C0401C0828D1D31460B1F8B0
:102D500000C0BCF1FF0F34DD546800202EE000F10C
:102D6000080C4FF0010808FA0CF3B1F800C00CEAA7
:102D700003069E4221D183004FF00F0C0CFA03F79B
:102D8000BC4305FA03FC4CEA040491F803C0BCF10F
:102D9000280F05D100F1080C08FA0CF8C2F81480CD
:102DA00091F803C0BCF1480F07D100F1080C4FF0B7
:102DB000010808FA0CF8C2F81080401C0828CED38D
:102DC0005460BDE8F0810246002093680B400BB1CF
:102DD000012000E0002070470AB1016100E041617C
:102DE0007047000008B500BF0121042001F0F2FB8C
:102DF00000BF8020ADF8000010208DF803000320F4
:102E00008DF8020069460548FFF752FF00BF002217
:102E100080210248FFF7E0FF00BF08BD0008014025
:102E200010B500F0B5F8012001F0D8FF16A200217E
:102E3000084600F0EAF8FFF7D5FF01F09DFB00F02F
:102E4000F9F84FF4E130FFF7AFFA4FF4E130FFF754
:102E50004DFD07E010A1144801F082FF4FF4FA7015
:102E600002F0E0F9FFF76CFB0028F3D10FA10E4848
:102E700001F076FFFFF71AFB02F0D8FA01F066FDC9
:102E800001F0B0FD10BD000048616E6477617265AD
:102E900020696E697400000044533138423230209A
:102EA00046414C53450D0A00004800404453313818
:102EB000423230204F4B0D0A0000000008B50121BE
:102EC000082001F087FB10208DF803000002ADF808
:102ED000000003208DF8020069462B48FFF7E8FE4A
:102EE00010208DF803004002ADF8000003208DF89B
:102EF000020069462448FFF7DBFE10208DF803002E
:102F00008002ADF8000003208DF8020069461E48DB
:102F1000FFF7CEFE10208DF80300C002ADF80000D0
:102F200003208DF8020069461748FFF7C1FE102004
:102F30008DF803002020ADF8000003208DF802007A
:102F400069461148FFF7B4FE10208DF803004020B9
:102F5000ADF8000003208DF8020069460A48FFF72B
:102F6000A7FE0121042001F035FB10208DF803009D
:102F70004FF4F850ADF8000003208DF802006946C8
:102F80000248FFF795FE08BD000C01400008014013
:102F900010B5FFF793FF382001F020FF0C2001F05F
:102FA0001DFF062001F01AFF012001F017FF10BDE0
:102FB00010B502460120002302E050435C1CE3B23E
:102FC0008B42FADB10BD2DE9F047074688461546CF
:102FD0001E464146384603F0D7FD344611E0611ED7
:102FE0000A20FFF7E5FFB5FBF0F00A21B0FBF1F294
:102FF00001FB120000F13009484601F051FF601E4C
:10300000C4B2002CEBDCBDE8F0872DE9F0410646A8
:103010000F4614463946304603F0B6FD002504E05D
:10302000605D01F03DFF681CC5B2605D0028F7D10E
:10303000BDE8F08108B500BF0121042001F0CAFA03
:1030400000BF0120ADF8000048208DF803000320E8
:103050008DF8020069460248FFF72AFE08BD00000D
:103060000008014010B50446207B012802D12068E9
:10307000FDF733F9002020606060A060207310BD70
:103080000246002301230DE002F07F000870D20900
:103090002AB1087840F080000870491C01E0184609
:1030A00070475B1C042BEFDD4FF0FF30F8E770B585
:1030B00004460E460025206898B90120207330464A
:1030C000FDF7DCF820602068E0B100206060A660B9
:1030D00003E00020216848556D1CA068A842F8D87C
:1030E00010E00220207303E00020216848556D1C89
:1030F000A068A842F8D800206060A068B04201D261
:103100000020206070BD00002DE9FF4F83B0824693
:103110008B469146159C0025002002900F270190B8
:103120004846FDF747FB0FFA80F8B9F1000F03D1CD
:10313000012007B0BDE8F08F08F10200384487B2E3
:10314000109808B145F00205129878B145F00405D1
:103150001298FDF72FFBC0B202901398FDF72AFBDF
:1031600001460298001D0844384487B2119820B1E6
:10317000012804D0022808D104E000BF07E045F090
:103180000C0504E045F0140501E00220D1E700BF82
:10319000149808B145F02405BAF1000F02D0BBF134
:1031A000000F01D10320C4E745F0C0055046FDF7EC
:1031B00001FB06465846FDF7FDFA3044001D384431
:1031C00087B239462046FFF772FF206808B904200D
:1031D000AFE739462068FDF7DAFB10216268501C22
:1031E000606020688154D4E90023D118781FFFF76C
:1031F00047FF00B201900198002804DA2046FFF74B
:1032000031FF052095E7616801980844606000215E
:103210006268501C60602068815404216268501C00
:103220006060206881544D216268501C6060206895
:10323000815451216268501C60602068815454217F
:103240006268501C6060206881546268501C606035
:103250002068815404216268501C60602068815499
:103260006168481C6060206845540698010A6268DD
:10327000501C6060206881540698C1B26268501C7E
:10328000606020688154C8F307216268501C606048
:10329000206881546268501C6060206800F80280D9
:1032A000D4E90012881842464946FDF73BFA6068A7
:1032B0004044606005F00400B8B30026139808B9D4
:1032C00038A013901298FDF775FA86B2310A626839
:1032D000501C6060206881546268501C60602068E7
:1032E0008654D4E90012881832461299FDF71AFA6A
:1032F0006068304460601398FDF75CFA86B2310A6A
:103300006268501C6060206881546268501C606074
:1033100020688654D4E90012881832461399FDF7C4
:1033200001FA60683044606000BF05F08000C8B1F9
:103330005046FDF73FFA86B2310A6268501C606061
:10334000206881546268501C606020688654D4E90B
:103350000012881832465146FDF7E4F9606830449F
:10336000606000BF05F04000C8B15846FDF722FA82
:1033700086B2310A6268501C6060206881546268BD
:10338000501C606020688654D4E9001288183246C8
:103390005946FDF7C7F960683044606000BF0020FF
:1033A000C7E60000000000002DE9FF4F83B0834610
:1033B00017469946139C0025002600200290019094
:1033C0008046BBF1000F03D1012007B0BDE8F08FAC
:1033D00000260AE00498805D232803D00498805DCD
:1033E0002B2801D10220F0E7761C0498805D00288C
:1033F000F0D148F03008119808B148F0010806EB08
:103400000900851C109820B1012804D002280AD197
:1034100005E000BF09E048F00208AD1C05E048F0F7
:103420000408AD1C01E00320CFE700BF8FB338785C
:10343000022821D14FF0000A00BF50460AF1010ACC
:10344000385C7D28F9D1AAF1030A0AF1070002903D
:103450000298A9EB000AE81CA0EB0A012046FFF73E
:1034600026FE206808B90420AFE7EA1CA2EB0A0197
:103470002068FDF78CFA19E0691D2046FFF717FE5A
:10348000206808B90420A0E7691D2068FDF77FFACD
:103490000CE0FFE7691D2046FFF709FE206808B928
:1034A000042092E7691D2068FDF771FA6168481CE5
:1034B0006060206800F80180D4E900028118284685
:1034C000FFF7DEFD01900198002804DA2046FFF79F
:1034D000C9FD052079E76168019808446060C6F37A
:1034E00007216268501C6060206881546268501C2B
:1034F000606020688654D4E9001288183246049926
:10350000FDF710F9606830446060109860B14FEAD0
:103510001B216268501C6060206881546268501CE6
:103520006060206800F802B0C7B1387802280BD17B
:10353000D4E9001288183946029AFDF7B1F961689A
:1035400002980844606009E0D4E9001288184A46ED
:103550003946FDF7A5F9606848446060002034E70B
:103560002DE9F04190B004460D4616469846169F48
:1035700023460CA2302104A80095FCF713FF01207C
:103580000021CDE9000133460A4604A9CDE902072E
:103590000A20FFF709FF18B1012010B0BDE8F08143
:1035A0000020FAE7247379732F25732F25732F7466
:1035B00068696E672F70726F70657274792F706FA3
:1035C000737400002DE9FF5F8046174699460E9CF4
:1035D0000026B246B3460025B8F1000F03D1012002
:1035E00004B0BDE8F09F0BE057F8250008B90220B1
:1035F000F6E757F82500FDF7DDF80644681CC5B26C
:103600004D45F1DB09EB4900801C00EB060A0AF18D
:1036100005012046FFF74BFD206808B90320DFE7CE
:1036200082216268501C606020688154D4E90002E5
:1036300081185046FFF724FD0FFA80FBBBF1000F05
:1036400004DA2046FFF70EFD0420C9E760685844FD
:1036500060604FEA18216268501C606020688154E5
:103660006268501C6060206800F80280002524E039
:1036700057F82500FDF79EF80646C6F30721626855
:10368000501C6060206881546268501C6060206833
:103690008654D4E90023D01857F825103246FDF798
:1036A00041F86068304460600198C1B26268501CA3
:1036B000606020688154681CC5B24D45D8DB00208D
:1036C0008EE7F0B504460D46264601230020106023
:1036D000002114E0775C07F07F07106807FB030008
:1036E0001060705C00F0800008B9481CF0BDDB0180
:1036F000B3F5001F02D36FF00100F7E7491CA942A0
:10370000E8DB4FF0FF30F1E701464878022801D0AE
:1037100001207047887810B18878012801D1C878D5
:10372000F7E7FF20F5E700002DE9FC5F81460D4635
:1037300014461E46DDE90C8B99F8000000F00F0AD4
:10374000002001900AF008000090CAF341008BF8B5
:10375000000001AA042109F10100FFF7B2FF48446B
:10376000471C0198022802D30AF0010010B1FF2083
:10377000BDE8FC9F7878397840EA012020802088D5
:10378000801C0199884201D9FF20F1E754A1B81C9F
:10379000FCF7DAFF08B10F20EAE79BF8000020B140
:1037A00001283DD0022877D13BE0009808B1FF20E6
:1037B000DEE72188481CFCF761FD2860286808B90D
:1037C000FF20D5E72288511C2868FDF7E0F8228801
:1037D000B91C2868FDF764F80198801E2188401AFA
:1037E000A8F80000B8F80010481CFCF747FD30604E
:1037F000306820B92868FCF770FDFF20B8E7B8F8FA
:103800000020511C3068FDF7C2F8B8F80020B4F869
:1038100000C0BB1C0CEB03013068FDF741F84FE022
:1038200000BF2088801C0199884201D9FF209FE7B2
:103830002088C01C395C2088801C385C41EA00214B
:103840000E9801800E9808B9FF2091E72188481C46
:10385000FCF714FD2860286808B9FF2088E7228853
:10386000511C2868FDF793F82288B91C2868FDF7D9
:1038700017F80198001F2188401AA8F80000B8F82E
:103880000010481CFCF7FAFC3060306828B9286842
:10389000FCF723FDFF206BE710E0B8F80020511C77
:1038A0003068FDF774F8B8F80020B4F800C03B1D8C
:1038B0000CEB03013068FCF7F3FF01E0FF2057E752
:1038C00000BF2B212846FCF723FF20B923212846DF
:1038D000FCF71EFF08B1FF204AE7002048E7000080
:1038E000246372657100000001464878022801D007
:1038F00001207047887820B9C8780A2801D10020B3
:10390000F7E70120F5E70000F8B50446FF27207827
:103910000511012D01DB0E2D01DD3846F8BD032D0B
:1039200024D1002000906A460421601CFFF7C9FEE4
:103930002044461C0098022803D3207800F00100A0
:1039400008B1FF20EAE77078317840EA0120801C56
:103950000099884201D9FF20E0E706A1B01CFCF7DE
:10396000F3FE08B10F2700E0032700E02F4638469A
:10397000D4E7000024637265710000000146FF2057
:103980008A78A2B9CA78142A11D10A7932B1012AE7
:1039900005D0022A04D0802A06D103E000BF00BF70
:1039A000002003E0012001E0022000BF00BF7047BB
:1039B00070B5002100230F22C47804B3154C24688D
:1039C00004F4E064C4F5E064210AC1F10403CA40D0
:1039D000447804FA03F184781440214309010E4C21
:1039E0000678A155047804F01F050124AC40057841
:1039F0006D11AD0005F1E025C5F8004109E004783E
:103A000004F01F050124AC40044D0678761145F8FA
:103A1000264070BD0CED00E000E400E080E100E035
:103A2000F0B58BB00546002600242846FCF7C2FE00
:103A3000C7B20DB11C2F02DA01200BB0F0BD06E0B9
:103A4000A85D01A988550020A855701CC6B2BE42C9
:103A5000F6DB002001A988550026002455E001A8C6
:103A6000805D2B2810D008DC202814D023282ED0ED
:103A7000252825D026283FD130E02F2812D03D28F8
:103A800033D03F2838D114E0281923A1FCF7FCFEDD
:103A9000E01CC4B236E0281920A1FCF7F5FEE01CBA
:103AA000C4B22FE028191EA1FCF7EEFEE01CC4B240
:103AB00028E028191BA1FCF7E7FEE01CC4B221E0B6
:103AC000281919A1FCF7E0FEE01CC4B21AE028197D
:103AD00016A1FCF7D9FEE01CC4B213E0281914A10A
:103AE000FCF7D2FEE01CC4B20CE0281911A1FCF7CF
:103AF000CBFEE01CC4B205E001A8805D2855601C27
:103B0000C4B200BF00BF701CC6B2BE42A7DB00201B
:103B1000285500BF91E700002532420025323000D1
:103B20002532460025334600253235002532330044
:103B300025323600253344002DE9F04FC9B0054643
:103B40000C4616461F460DF5A47898E8000F002095
:103B5000489055B14CB13F48864206D32FB1B9F1D8
:103B6000000F02D0BAF1780F03DA012049B0BDE8A6
:103B7000F08F402118A8FCF72CFF3846FCF71AFEFE
:103B800005903B4648AA4021009018A8FEF7B4FAD9
:103B9000482106A8FCF71DFFBBF1000F09D02EA09D
:103BA00033462FA248218DE8310006A8FCF7FAFB26
:103BB00009E029A0334630A248218DE81101039580
:103BC00006A8FCF7EFFB402128A8FCF702FF06A897
:103BD000FCF7F0FD059018A8FCF7ECFD049028A870
:103BE000009006AA18A8DDE9041301F06DFB00207F
:103BF0004890402138A8FCF7ECFE28A8FCF7DAFD35
:103C0000059028AB48AA4021009038A8FEF72AFB6F
:103C100038A8FFF705FFBBF1000F0CD038A80EA1A4
:103C20002B461DA2CDE90046CDE90210514648467B
:103C3000FCF7B8FB0CE038A807A12B46244ACDE9D5
:103C400001860094CDE9031051464846FCF7AAFBD3
:103C500000208BE79554415D7368613100000000DE
:103C600025640A25730A70726F64756374732F2557
:103C7000730A25730000000025640A25730A707218
:103C80006F64756374732F25732F6465766963653C
:103C9000732F25730A25730076657273696F6E3D05
:103CA0002573267265733D70726F64756374732536
:103CB00025324625732665743D2564266D65746836
:103CC0006F643D2573267369676E3D2573000000A0
:103CD0008C7D000800B595B00020119012901390D3
:103CE000149003A8029010A010A313A238210090F2
:103CF00003A8FCF757FB03AA17A11D4801F030F8F1
:103D000011A8012302AA002100901420FFF75AFCF9
:103D100038B9129A91B21198FEF7C4FD11A8FFF7B5
:103D2000A1F915B000BD0000643100006D484230BB
:103D3000574B56534E300000247379732F25732F41
:103D400025732F7468696E672F70726F7065727457
:103D5000792F736574000000537562736372696232
:103D60006520546F7069633A2025730D0A000000C6
:103D70000048004030B5B3B000202F903090319013
:103D800032900125A02107AA37A3CDE90032CDE961
:103D9000021036A3414A42A144A0FFF7CDFE07A876
:103DA0003FA331A244A100904F4800F0D9FF2FA8B3
:103DB000002102910391CDE90410084601210B0274
:103DC00029A2CDE9001007A935A0FFF79DF9002829
:103DD00042D1309A91B22F98FEF764FDFA20FEF797
:103DE0006DFC0446002C33D02046FFF78DFD0228E1
:103DF0002ED12046FFF788FC062823D2DFE800F00A
:103E000003090E13181D39A1374800F0A9FF00253A
:103E10001DE03BA1344800F0A3FF18E03FA1324869
:103E200000F09EFF13E046A12F4800F099FF0EE03E
:103E30004BA12D4800F094FF09E052A12A4800F060
:103E40008FFF04E05AA1284800F08AFF00BF00BF9E
:103E50002FA8FFF707F903E05CA1234800F080FFDB
:103E6000284633B030BD000064310000643152692F
:103E700063576873517A5A4C5445645163305648BD
:103E8000633035555747354C535456574F554E535D
:103E90005545706C526D4D3D0000000000CF9D7483
:103EA0006D484230574B56534E3000003230313857
:103EB0002D31302D333100004F6E654E45545F4437
:103EC00065764C696E6B0D0A4E414D453A2025735F
:103ED0002C0950524F49443A2025732C094B45591F
:103EE0003A25730D0A0000000048004054697073C1
:103EF0003A09C1ACBDD3B3C9B9A60D0A0000000090
:103F00005741524E3A09C1ACBDD3CAA7B0DCA3BADF
:103F1000D0ADD2E9B4EDCEF30D0A00005741524EB8
:103F20003A09C1ACBDD3CAA7B0DCA3BAB7C7B7A81A
:103F3000B5C4636C69656E7469640D0A00000000A5
:103F40005741524E3A09C1ACBDD3CAA7B0DCA3BA9F
:103F5000B7FECEF1C6F7CAA7B0DC0D0A000000001C
:103F60005741524E3A09C1ACBDD3CAA7B0DCA3BA7F
:103F7000D3C3BBA7C3FBBBF2C3DCC2EBB4EDCEF330
:103F80000D0A00005741524E3A09C1ACBDD3CAA731
:103F9000B0DCA3BAB7C7B7A8C1B4BDD328B1C8C8ED
:103FA000E7746F6B656EB7C7B7A8290D0A000000EC
:103FB0004552523A09C1ACBDD3CAA7B0DCA3BACEB0
:103FC000B4D6AAB4EDCEF30D0A0000005741524E0C
:103FD0003A094D5154545F5061636B6574436F6E81
:103FE0006E656374204661696C65640D0A000000AB
:103FF00010B58CB0044630216846FCF7EAFC38A1C5
:104000002046FCF7B3FB30216846FCF7E2FC3A4857
:104010003AA102686846FCF7AFF969462046FCF70A
:1040200033FC30216846FCF7D4FC3A483AA10268D8
:104030006846FCF7A1F969462046FCF725FC3021CB
:104040006846FCF7C6FC3B483BA102686846FCF7A3
:1040500093F969462046FCF717FC30216846FCF7C7
:10406000B8FC3C48007808B13BA000E03CA0024608
:104070003DA16846FCF780F969462046FCF704FC40
:1040800030216846FCF7A5FC3D48007808B132A015
:1040900000E033A002463BA16846FCF76DF9694693
:1040A0002046FCF7F1FB30216846FCF792FC3B48C8
:1040B000007808B128A000E029A0024638A168468F
:1040C000FCF75AF969462046FCF7DEFB3BA1204687
:1040D000FCF7DAFB2046FCF76DFBC0B20CB010BD5C
:1040E0007B226964223A22313233222C227061729F
:1040F000616D73223A7B0000380000202274656DE8
:1041000070223A7B2276616C7565223A25647D2C9B
:104110000000000040000020227365745F74656D2C
:10412000705F68223A7B2276616C7565223A25645D
:104130007D2C00003C000020227365745F74656D67
:10414000705F6C223A7B2276616C7565223A256439
:104150007D2C000044000020747275650000000092
:1041600066616C7365000000226D6F6465223A7BA6
:104170002276616C7565223A25737D2C0000000063
:10418000490000202270756D70223A7B2276616CA6
:104190007565223A25737D2C000000004800002040
:1041A0002277617465725F6C6576656C223A7B225A
:1041B00076616C7565223A25737D00007D7D000077
:1041C0002DE9F04F8BB0824600200A9009900890AC
:1041D0000790069000268146834605905046FFF7DB
:1041E00093FB0646032E04D0042E77D0092E76D1F9
:1041F000CBE0794806A907AA0AABCDE900210290D5
:1042000008AA09A95046FFF78FFA8146B9F1000FB5
:1042100071D100200290BDF81C000A99CDE9001070
:10422000BDF820306DA17C48099A00F099FD0A98EC
:1042300000F07CFF049079A1049800F057FF0390F0
:1042400078A1039800F052FF074678A1039800F088
:104250004DFF804677A1039800F048FF054678A1FE
:10426000039800F043FF04465FB17848007840B9F6
:10427000F868012802D17649087002E000207449EC
:104280000870B8F1000F41D0D8F80C00012833D1E4
:104290006E48007820BB6E48007848B16C480078C2
:1042A000012810D16B4800686B49096888420AD31D
:1042B00000BF012240216948FEF78EFD00BF0120AA
:1042C0006749087022E000BF002240216348FEF7E2
:1042D00083FD00BF00206249087017E049E062E0FA
:1042E00000BF002240215D48FEF776FD00BF0020A0
:1042F0005B4908700AE03BE000BF002240215748BC
:10430000FEF76AFD00BF002055490870ADB168692D
:10431000002803DA0020504908600EE06869401D5B
:1043200050490968884205D34E480068401F4A49F1
:10433000086002E0484968690860ACB160695028CB
:1043400003DD5020474908600EE04348616900687A
:10435000401D814205D840480068401D4149086021
:1043600002E0404960690860049800F093FE00BFD5
:1043700000BF5046FFF7B8FA30B900203A4908703C
:104380003AA1254800F0ECFC10E05046FFF7F6FAA1
:1043900020B93EA1204800F0E3FC03E042A11E4802
:1043A00000F0DEFC02E04FF0FF3900BF00BFFEF777
:1043B00077F909F1010010B90BB0BDE8F08F0F2EAD
:1043C00001D0032E05D10998FBF787FF0A98FBF768
:1043D00084FF00BFF0E7000018000020746F7069D0
:1043E000633A2025732C20746F7069635F6C656E6F
:1043F0003A2025642C207061796C6F61643A202525
:10440000732C207061796C6F61645F6C656E3A200B
:1044100025640D0A000000000048004070617261D0
:104420006D7300006D6F64650000000070756D7045
:10443000000000007365745F74656D705F6C000050
:104440007365745F74656D705F68000048000020DC
:1044500044000020380000203C00002000080140FB
:1044600049000020400000204C0000205469707377
:104470003A094D515454205075626C697368205349
:10448000656E64204F4B0D0A000000005469707384
:104490003A094D51545420537562736372696265D1
:1044A000204F4B0D0A000000546970733A094D51BA
:1044B0005454205375627363726962652045727249
:1044C0000D0A000030B5C5B00020419042904390E5
:1044D0004490002400254FF4807101A8FCF779FA7C
:1044E00001A8FFF785FD0446002C26D041A8002333
:1044F000224613A1009013A0FFF732F8C8B908E0D4
:1045000001A8415D429A501C429041988154681C18
:1045100005B2A542F4DB429A91B24198FEF7C2F986
:1045200041A8FEF79FFD0A480078401C0849087022
:1045300003E008A10F4800F013FC45B030BD0000B7
:10454000643100006D484230574B56534E300000E6
:104550004C0000205741524E3A094544505F4E6589
:1045600077427566666572204661696C65640D0AFE
:10457000000000000048004008B500BF01210420F1
:1045800000F028F800BF4020ADF8000010208DF8A2
:10459000030003208DF8020069460548FEF788FBFA
:1045A00000BF002240210248FEF716FC00BF08BDF4
:1045B0000008014029B1064AD2690243044BDA617E
:1045C00004E0034AD2698243014BDA61704700007C
:1045D0000010024029B1064A92690243044B9A61D5
:1045E00004E0034A92698243014B9A6170470000DC
:1045F0000010024030B500210022002400232D4D80
:104600006D6805F00C0121B1042905D0082923D1DA
:1046100005E0294D056022E0274D05601FE0254D8E
:104620006D6805F47012234D6D6805F48034022521
:1046300005EB92421CB9214D554305600BE01D4D21
:104640006D6805F400351DB11C4D5543056002E051
:10465000194D5543056002E0174D056000BF00BFCE
:10466000144D6D6805F0F0010909154D6B5C056886
:10467000DD4045600F4D6D6805F4E061090A104D9D
:104680006B5C4568DD4085600A4D6D6805F46051DE
:10469000C90A0B4D6B5C4568DD40C560054D6D6812
:1046A00005F44041890B074D6B5CC568B5FBF3F51C
:1046B000056130BD0010024000127A0000093D0083
:1046C000000000201000002010B500F001F810BD1F
:1046D0000CB50020019000903348006840F4803011
:1046E0003149086000BF3048006800F40030009095
:1046F0000198401C0190009818B90198B0F5A06F7E
:10470000F1D12948006800F4003010B10120009078
:1047100001E0002000900098012843D12348006860
:1047200040F01000214908600846006820F00700AA
:1047300008600846006840F0020008601A484068B7
:10474000194948600846406848600846406840F497
:10475000806048600846406820F47C104860084645
:10476000406840F4E81048600846006840F08070F7
:10477000086000BF0C48006800F000700028F9D005
:104780000948406820F0030007494860084640682F
:1047900040F00200486000BF0348406800F00C0091
:1047A0000828F9D10CBD0000001002400020024092
:1047B0002DE9F04104460E4617461D46012000F043
:1047C0000DFB20A200210846FEF71FFC02231E4815
:1047D000194602680020FEF7F6FB012D05D11BA249
:1047E0000C210020FEF711FC05E025B918A20C21D0
:1047F0000020FEF70AFC2CB916A200210120FEF7CA
:1048000004FC1CE0012C1AD114A200210120FEF7A7
:10481000FCFB14A205210120FEF7F7FB0223324620
:1048200008210120FEF7CFFB0FA20B210120FEF78C
:10483000ECFB02233A460E210120FEF7C4FBBDE843
:10484000F0810000543A0000380000204F4E000074
:104850004F4646004E6F726D616C00004865617492
:104860000000000054483A00544C3A0010B5134878
:10487000006840F00100114908600846406810498E
:1048800008400E494860084600680E4908400B4938
:1048900008600846006820F48020086008464068E8
:1048A00020F4FE0048604FF41F008860FFF70CFF03
:1048B0004FF000600449086010BD00000010024085
:1048C0000000FFF8FFFFF6FE08ED00E010B5012143
:1048D000880700F0D2F800B31A480068401C194954
:1048E000086008460068642809D301211648FEF7CD
:1048F0006AFA20B900214FF0804000F0B2F8114868
:10490000006864280AD302210F48FEF75CFA28B930
:1049100000214FF0804000F0A4F80EE00948006844
:1049200064280AD34FF400710748FEF74CFA20B907
:1049300000214FF0804000F094F80121880700F03A
:104940008DF810BD28000020000C01401FB501218A
:104950000846FFF72FFE4720ADF804000020ADF811
:10496000060042F20F70ADF808000020ADF80A0012
:104970008DF80C0001A94FF0804000F097F84FF03F
:10498000804000F08CF801221146900700F07EF87C
:104990000121880700F062F81C208DF80000022039
:1049A0008DF8010001208DF802008DF803006846A3
:1049B000FEF7FEFF00214FF0804000F052F81FBDCF
:1049C00010B50121054800F058F810B10120044944
:1049D00008700121014800F041F810BD00040040BA
:1049E0004B0000201FB501210220FFF7E3FD41F637
:1049F0001F40ADF804000020ADF806004DF2D7606E
:104A0000ADF808000020ADF80A008DF80C0001A9EF
:104A1000114800F04BF8104800F041F8012211460F
:104A20000D4800F033F801210B4800F017F81D2065
:104A30008DF8000003208DF8010000208DF80200A1
:104A400001208DF803006846FEF7B2FF01210248FD
:104A500000F007F81FBD000000040040CA430282B6
:104A6000704721B1028842F00102028004E002880E
:104A70004FF6FE731A400280704702460020138AE8
:104A80000B400BB1012000E0002070471AB1838970
:104A90000B43838102E083898B43838170470189C3
:104AA0004FF6F87211400181704700000022028821
:104AB0001D4B98420ED01D4B98420BD0B0F1804F49
:104AC00008D01B4B984205D01A4B984202D01A4B83
:104AD000984204D14FF68F731A404B881A43174BF4
:104AE000984207D0164B984204D04FF6FF431A4025
:104AF000CB881A4302808B8883850B8803850A4BF9
:104B000098420BD0094B984208D00E4B984205D0E2
:104B10000D4B984202D00D4B984201D10B7A03867F
:104B20000123838270470000002C014000340140C3
:104B30000004004000080040000C0040001000404D
:104B40000014004000400140004401400048014082
:104B500010B540F225510E4800F042F8B8B10D48AA
:104B60000088B0F5007F02D300200A490880084879
:104B7000001D0088C1B2074802880088401C054B10
:104B80001880054881542021014800F007F810BD25
:104B900000440040140000205400002001F4007282
:104BA000B2F5007F00D100BFCA430280704721B137
:104BB000828942F40052828104E082894DF6FF73BB
:104BC0001A408281704702460020B1F5007F00D173
:104BD00000BF13880B400BB1012000E0002070479C
:104BE00070B50246002400230025002040F66A1616
:104BF000B14200D100BFC1F3421501F01F030126ED
:104C000006FA03F3012D02D19689334006E0022D06
:104C100002D1168A334001E0968A33400C120126F5
:104C200006FA04F41688344013B10CB1012000E0F8
:104C3000002070BDF0B503460024002600250020AA
:104C400040F66A17B94200D100BF1846C1F34214BA
:104C500001F01F06012707FA06F5012C01D10C30DF
:104C600004E0022C01D1103000E014301AB10768C2
:104C70002F43076002E00768AF430760F0BD000004
:104C80002DE9F04786B005460E460024A24600BF37
:104C9000A1460027B08900B100BF2F462C8A4CF6F0
:104CA000FF700440F08804432C82AC894EF6F31068
:104CB0000440B08831890843718908430443AC81BA
:104CC000AC8A4FF6FF400440B0890443AC8201A88F
:104CD000FFF790FC1F48874202D1DDF810A001E0E9
:104CE000DDF80CA0A88900F4004040B10AEBCA002E
:104CF00000EB0A1031684900B0FBF1F807E00AEB5D
:104D0000CA0000EB0A1031688900B0FBF1F864209A
:104D1000B8FBF0F004012009642101FB1089A88987
:104D200000F4004040B1322000EBC900B0FBF1F0CC
:104D300000F00700044308E0322000EB0910642172
:104D4000B0FBF1F000F00F0004432C8106B0BDE889
:104D5000F087000000380140C1F3080282807047EC
:104D60000FB430B5CBB0054601AC50A800904FF45D
:104D7000947101A8009B4F9AFBF7E4FA0020009081
:104D80000BE014F8011B2846FFF7E6FF00BF4021A7
:104D90002846FFF718FF0028F9D020780028F0D126
:104DA0004BB030BC5DF814FB2DE9F04107460C46D2
:104DB000154600260DE014F8011B3846FFF7CCFF1E
:104DC00000BF40213846FFF7FEFE0028F9D0701CD6
:104DD00086B2AE42EFDBBDE8F081000010B50446BC
:104DE00000BF00224FF480512B48FDF7F5FF00BFB4
:104DF00000BF00224FF400512748FDF7EDFF00BF30
:104E000004F001024FF400412348FDF7E5FFC4F32D
:104E100040024FF480712148FDF7DEFFC4F38002A9
:104E20004FF400711D48FDF7D7FFC4F3C0024FF4E3
:104E300080611A48FDF7D0FFC4F300124FF40061FF
:104E40001648FDF7C9FFC4F340124FF480511348D0
:104E5000FDF7C2FFC4F3801220210F48FDF7BCFF0D
:104E6000E20940210C48FDF7B7FF00BF0122910382
:104E70000948FDF7B1FF00BF012000F0D3F900BFE2
:104E800000224FF480410448FDF7A6FF00BF012037
:104E900000F0C8F910BD0000000C014000080140FE
:104EA00010B5044600BF012211032F48FDF794FFFF
:104EB00000BF00BF00224FF400512B48FDF78CFFCC
:104EC00000BF00BF00224FF480412748FDF784FF58
:104ED00000BF04F001024FF400412348FDF77CFFBE
:104EE000C4F340024FF480712048FDF775FFC4F30E
:104EF00080024FF400711D48FDF76EFFC4F3C0023D
:104F00004FF480611948FDF767FFC4F300124FF4B6
:104F100000611648FDF760FFC4F340124FF4805162
:104F20001248FDF759FFC4F3801220210E48FDF707
:104F300053FFE20940210C48FDF74EFF00BF01225C
:104F400091030948FDF748FF00BF012000F06AF90E
:104F500000BF00224FF480410348FDF73DFF00BF32
:104F6000012000F05FF910BD000C01400008014075
:104F7000490050EAC12018BF04204A0D18BF40F074
:104F8000010040F2FF72B2EB515F08BF40F0020037
:104F9000012808BF052070472DE9F0414F1E00EBA6
:104FA000C7010446D1E9000115461E4637F0060246
:104FB0000DD02A46334602F031FA7F1E04EBC703B8
:104FC000D3E9002301F094FF37F00602F1D1022F5C
:104FD00025D0042F13D0062F18BFBDE8F0812A4634
:104FE000334602F01BFAD4E90A2301F081FF2A4676
:104FF000334602F013FAD4E9082301F079FF2A4678
:10500000334602F00BFAD4E9062301F071FF2A4679
:10501000334602F003FAD4E9042301F069FF2A467B
:10502000334602F0FBF9D4E9022301F061FF2A467E
:10503000334602F0F3F9D4E90023BDE8F04101F072
:1050400057BF0000002213461046014902F00CB879
:105050000000F03F01F04CBF0022134610461146FD
:1050600002F002B840F2013200204FF0E04102F0BD
:105070001BBD0000024A0020110702F015BD000010
:1050800001FDFFFF30380A2801D2012070470020BF
:105090007047000070B5044622E02568A08900F43E
:1050A000807020B9A06810B1A068FFF7F3FFA08955
:1050B00000F4807028B9206918B10B49206909688B
:1050C0008847A08900F4007028B9206A18B1064901
:1050D000206A0968884720460349096888472C46A2
:1050E000002CDAD170BD00002400002070B5054608
:1050F0000E46AC6800E024682CB13146206A00F00E
:105100004FF80028F7D1204670BD000010B52820C8
:1051100005490968884704461CB128212046FBF749
:1051200058FC204610BD00002000002010B50446A9
:1051300000221146204600F001F810BD2DE9F0478D
:1051400080460D4616460024FFF7E0FF0746002084
:10515000124908600FB9BDE8F087404601F06CFEC7
:1051600081464946384600F075FF044624B9384662
:10517000FFF790FF0020EEE766B1204601F05CFEED
:105180000446207830B13846FFF784FF03480460B6
:105190000020E0E705B12C603846DCE71C00002069
:1051A00070B504460D462CB9AC4201D0012070BD4B
:1051B0000020FCE70DB90120F9E705E0207808B9E7
:1051C0000020F4E7641C6D1C2078FBF7ADF8064660
:1051D0002878FBF7A9F88642F0D02078FBF7A4F8EE
:1051E00006462878FBF7A0F8301AE0E74FF0E020F9
:1051F000006920F004004FF0E02108610920074910
:1052000008700846007800EB4001C1EBC0104FF673
:10521000FF7101EAC0000249088070474E0000207B
:105220005000002010B5044605E04FF47A7000F0FD
:1052300005F8601E84B2002CF7DC10BD002120F0C0
:105240007F400D4A127842434FF0E0235A6100221A
:105250009A6101221A6100BF4FF0E022116901F04A
:1052600001021AB101F48032002AF5D000224FF079
:10527000E0231A619A6170474E000020F0B50446A1
:10528000142C06DA01EA020523EA010685EA060083
:1052900019E0282C04DA81EA020787EA030012E009
:1052A0003C2C0ADA01EA020501EA030787EA05064F
:1052B00002EA030787EA060005E0502C03DA81EAD8
:1052C000020787EA0300F0BD2DE9F04FADF5B36D9D
:1052D00007460E4692469846DDF8BC9540254FF0AD
:1052E000360B5C20CDF89405002404E000200DF27C
:1052F00054510855641C402CF8DBAE421DD0AE4220
:105300000FDD4A463146384601F054FC002405E0E2
:1053100019F804000DF254510855641C142CF7DBE5
:1053200014E0AE4212DA002404E0385D0DF254516C
:105330000855641CB442F8DB08E0002404E0385D42
:105340000DF254510855641CAC42F8DB002408E00F
:105350000DF25450005D80EA0B000DF21451085517
:10536000641C402CF4DB002405E00DF21450005DB9
:1053700015A90855641C402CF7DB002406E01AF838
:10538000041015AA04F140001154641C4445F6DBD6
:1053900008EB05014A4615A801F00CFC002409E0C1
:1053A0000DF25450005DDDF8941548400DF2D441E3
:1053B0000855641C402CF3DB002405E00DF2D440BA
:1053C000005D0DF80400641C402CF7DB002406E0AF
:1053D00019F8041004F140000DF80010641C142C9E
:1053E000F6DB4A4605F11401684601F0E3FB0DF5D2
:1053F000B36DBDE8F08F00000146142901DA0748BB
:105400000AE0282901DA064806E03C2901DA0548C5
:1054100002E0502900DA0448704700009979825A66
:10542000A1EBD96EDCBC1B8FD6C162CA1FB50121AE
:105430000820FFF7CFF801210846FFF7CBF84820F6
:105440008DF80F0040F20320ADF80C0003208DF81A
:105450000E0003A93248FDF72BFC00210120FDF7C7
:1054600007FC0120009000208DF8040010208DF82A
:10547000050001208DF806006846FDF7AFFB062009
:105480008DF8080003208DF8090001208DF80A002E
:105490008DF80B0002A8FEF78BFA01210846FDF7F4
:1054A000E7FB0220009000208DF8040010208DF80A
:1054B000050001208DF806006846FDF78FFB0720E8
:1054C0008DF8080003208DF8090001208DF80A00EE
:1054D0008DF80B0002A8FEF76BFA09210120FDF7F9
:1054E000C7FB4FF40070009000208DF804001020DE
:1054F0008DF8050001208DF806006846FDF76EFB6B
:1055000017208DF8080003208DF8090001208DF880
:105510000A008DF80B0002A8FEF74AFA1FBD000032
:10552000000C014000250020F44908700024F449D3
:105530000870F44908700120F3490870F3490870B5
:105540000020F3490870F34908700A20F249086006
:105550000F20F2490860FFF749FE4FF47A70FFF719
:1055600061FEFDF75DFC40E2FDF7D0F80120FFF79A
:1055700035FCEBA200210846FDF747FDECA1F348FE
:10558000FFF7EEFB03E04FF4FA70FFF74BFEF0A1DC
:10559000F1A0FDF75DF90028F5D1FBA1EB48FFF77D
:1055A000DFFB0120FFF71AFCFDA200210846FDF7F2
:1055B0002CFD07E04FF4FA70FFF734FEE4A1E6A0FB
:1055C000FDF746F9FEF7D6FB0028F3D1FEF782FB84
:1055D00009E20121F648FDF7F6FB08B9012000E0D9
:1055E0000020F4490870FCF761FF05460A2095FB8E
:1055F000F0F0F149086001F08FFA072813D2DFE8D4
:1056000000F0B804132364658F00BD48007818B912
:105610000120BC49087006E0B9480078012802D191
:105620000020B8490870A4E0B8480078012803D1E8
:105630000220B549087006E0B4480078022802D17B
:105640000120B149087094E0DA480078E0BBAD4829
:10565000007810B9AE48007860B1AA4800780128F7
:1056600013D1AB48007880B9D3480068AA490968CB
:1056700088420AD300BF01224021CD48FDF7ACFB90
:1056800000BF0120A24908701EE09E48007818B9AA
:105690009F48007801280DD09A480078012813D13E
:1056A0009B48007801280FD1C34800689A490968CF
:1056B000884209D300BF00224021BD48FDF78CFB82
:1056C00000BF00209249087053E052E08D480078F6
:1056D000012824D18C480078012811D18E48006817
:1056E000401D8D49086008460068401D8B490968C7
:1056F000884214D389480068401F874908600EE03B
:105700008148007802280AD184480068401D8349F6
:10571000086008460068502801D35020086028E03F
:1057200078480078012823D17748007801280AD1E9
:1057300079480068401F7849086008460068B8B991
:105740000020086014E070480078022810D17348E7
:105750000068401F71490860084601686E4800688B
:10576000401D814204D86C480068401D6B490860A8
:1057700000BF00BF6148007801280ED18F48007833
:10578000022803D100208D4908702DE1FEF79AFE12
:1057900000205A490870FCF783FF0020FCF78EFFB9
:1057A000044614B12046FEF70BFD564800785449D4
:1057B000087055480078554908707E480078E0B177
:1057C00000BF002240217A48FDF706FB00BF002001
:1057D0004F49087000BF002280217548FDF7FCFA90
:1057E00000BF00204B4908700120FFF7F7FA74A2B0
:1057F00000210846FDF709FCF5E0454803784648D6
:105800000268464801683F480078FEF7D1FF3D48EE
:10581000007801281AD1684800683F490968884221
:1058200014D200BF012280216148FDF7D5FA00BFE4
:1058300001203849087000BF002240215C48FDF774
:10584000CBFA00BF002032490870CCE02D48007828
:1058500001281AD15848006830490968884214D292
:10586000554800682C49096888420ED929480078B3
:1058700001280AD100BF012280214D48FDF7ACFA72
:1058800000BF012023490870ADE01E4800780128C0
:1058900014D1494800682149096888420ED31D483F
:1058A000007801280AD100BF002280214048FDF77E
:1058B00093FA00BF00201749087094E0114800785F
:1058C000012819D13C4800681449096888427DD8EC
:1058D0003948006810490968884277D30D48007834
:1058E00050B900BF002280213148FDF775FA00BF92
:1058F00000200849087076E068E000004B000020B6
:105900004500002044000020460000204700002001
:10591000490000204A0000203C00002040000020F8
:10592000434F4E4E454354204D5154547300000094
:10593000434F4E4E454354204D51545473205365AC
:10594000727665722E2E2E0D0A000000004800406F
:10595000434F4E4E4543540041542B4349505354FA
:105960004152543D22544350222C226D7174747361
:105970002E6865636C6F7564732E636F6D222C31B6
:105980003838330D0A000000434F4E4E4543542033
:105990004D5154547320535543434553530D0A00FE
:1059A0004F6E654E45545F4465764C696E6B0000E2
:1059B0000008014048000020380000204C00002072
:1059C0004C41434B20574154455200000748007852
:1059D00048B900BF002280210548FDF7FDF900BF4E
:1059E000002004490870F4E500BFBDE54400002034
:1059F000000801404A0000202DE9F04705460C460A
:105A000020785B2804D0264804600020BDE8F08799
:105A10000520E860601C01F00FFA044620785D283C
:105A200001D1601CF2E7FFF771FB0646A860A86889
:105A300008B90020EAE7204601F0FEF98046414619
:105A4000304600F007FB074601F0F6F904460CB9B2
:105A50000020DBE717E0FFF759FB071E00D1D5E771
:105A600037607E603E46601C01F0E6F9814649469B
:105A7000304600F0EFFA804601F0DEF904460CB93A
:105A80000020C3E700BF20782C28E4D020785D28D0
:105A900001D1601CBAE7024804600020B6E70000AC
:105AA0001C000020014600220878302806DB087818
:105AB000392803DC08783038024415E0087841289A
:105AC00006DB0878462803DC0878373802440BE008
:105AD0000878612806DB0878662803DC08785738E0
